{
	"contracts/9_Modificadores.sol": {
		"Modificadores": {
			"abi": [
				{
					"inputs": [],
					"stateMutability": "nonpayable",
					"type": "constructor"
				},
				{
					"inputs": [
						{
							"internalType": "uint256",
							"name": "monto",
							"type": "uint256"
						}
					],
					"name": "depositarFondos",
					"outputs": [],
					"stateMutability": "nonpayable",
					"type": "function"
				},
				{
					"inputs": [],
					"name": "limpiarFondo",
					"outputs": [],
					"stateMutability": "nonpayable",
					"type": "function"
				},
				{
					"inputs": [
						{
							"internalType": "uint256",
							"name": "monto",
							"type": "uint256"
						}
					],
					"name": "retirarFondos",
					"outputs": [],
					"stateMutability": "nonpayable",
					"type": "function"
				}
			],
			"devdoc": {
				"kind": "dev",
				"methods": {},
				"version": 1
			},
			"evm": {
				"assembly": "    /* \"contracts/9_Modificadores.sol\":72:950  contract Modificadores {... */\n  mstore(0x40, 0x80)\n    /* \"contracts/9_Modificadores.sol\":127:128  0 */\n  0x00\n    /* \"contracts/9_Modificadores.sol\":102:128  uint256 private fondos = 0 */\n  0x00\n  sstore\n    /* \"contracts/9_Modificadores.sol\":165:216  constructor() {... */\n  callvalue\n  dup1\n  iszero\n  tag_1\n  jumpi\n  revert(0x00, 0x00)\ntag_1:\n  pop\n    /* \"contracts/9_Modificadores.sol\":198:208  msg.sender */\n  caller\n    /* \"contracts/9_Modificadores.sol\":190:195  owner */\n  0x01\n  0x00\n    /* \"contracts/9_Modificadores.sol\":190:208  owner = msg.sender */\n  0x0100\n  exp\n  dup2\n  sload\n  dup2\n  0xffffffffffffffffffffffffffffffffffffffff\n  mul\n  not\n  and\n  swap1\n  dup4\n  0xffffffffffffffffffffffffffffffffffffffff\n  and\n  mul\n  or\n  swap1\n  sstore\n  pop\n    /* \"contracts/9_Modificadores.sol\":72:950  contract Modificadores {... */\n  dataSize(sub_0)\n  dup1\n  dataOffset(sub_0)\n  0x00\n  codecopy\n  0x00\n  return\nstop\n\nsub_0: assembly {\n        /* \"contracts/9_Modificadores.sol\":72:950  contract Modificadores {... */\n      mstore(0x40, 0x80)\n      callvalue\n      dup1\n      iszero\n      tag_1\n      jumpi\n      revert(0x00, 0x00)\n    tag_1:\n      pop\n      jumpi(tag_2, lt(calldatasize, 0x04))\n      shr(0xe0, calldataload(0x00))\n      dup1\n      0x453b7737\n      eq\n      tag_3\n      jumpi\n      dup1\n      0xa32aa717\n      eq\n      tag_4\n      jumpi\n      dup1\n      0xd5c2e713\n      eq\n      tag_5\n      jumpi\n    tag_2:\n      revert(0x00, 0x00)\n        /* \"contracts/9_Modificadores.sol\":430:540  function depositarFondos(uint256 monto) public {... */\n    tag_3:\n      tag_6\n      0x04\n      dup1\n      calldatasize\n      sub\n      dup2\n      add\n      swap1\n      tag_7\n      swap2\n      swap1\n      tag_8\n      jump\t// in\n    tag_7:\n      tag_9\n      jump\t// in\n    tag_6:\n      stop\n        /* \"contracts/9_Modificadores.sol\":548:796  function retirarFondos(uint256 monto) public isOwner NotCero {... */\n    tag_4:\n      tag_10\n      0x04\n      dup1\n      calldatasize\n      sub\n      dup2\n      add\n      swap1\n      tag_11\n      swap2\n      swap1\n      tag_8\n      jump\t// in\n    tag_11:\n      tag_12\n      jump\t// in\n    tag_10:\n      stop\n        /* \"contracts/9_Modificadores.sol\":804:947  function limpiarFondo() public isOwner NotCero {... */\n    tag_5:\n      tag_13\n      tag_14\n      jump\t// in\n    tag_13:\n      stop\n        /* \"contracts/9_Modificadores.sol\":430:540  function depositarFondos(uint256 monto) public {... */\n    tag_9:\n        /* \"contracts/9_Modificadores.sol\":506:511  monto */\n      dup1\n        /* \"contracts/9_Modificadores.sol\":497:503  fondos */\n      sload(0x00)\n        /* \"contracts/9_Modificadores.sol\":497:511  fondos + monto */\n      tag_16\n      swap2\n      swap1\n      tag_17\n      jump\t// in\n    tag_16:\n        /* \"contracts/9_Modificadores.sol\":488:494  fondos */\n      0x00\n        /* \"contracts/9_Modificadores.sol\":488:511  fondos = fondos + monto */\n      dup2\n      swap1\n      sstore\n      pop\n        /* \"contracts/9_Modificadores.sol\":430:540  function depositarFondos(uint256 monto) public {... */\n      pop\n      jump\t// out\n        /* \"contracts/9_Modificadores.sol\":548:796  function retirarFondos(uint256 monto) public isOwner NotCero {... */\n    tag_12:\n        /* \"contracts/9_Modificadores.sol\":276:281  owner */\n      0x01\n      0x00\n      swap1\n      sload\n      swap1\n      0x0100\n      exp\n      swap1\n      div\n      0xffffffffffffffffffffffffffffffffffffffff\n      and\n        /* \"contracts/9_Modificadores.sol\":262:281  msg.sender == owner */\n      0xffffffffffffffffffffffffffffffffffffffff\n      and\n        /* \"contracts/9_Modificadores.sol\":262:272  msg.sender */\n      caller\n        /* \"contracts/9_Modificadores.sol\":262:281  msg.sender == owner */\n      0xffffffffffffffffffffffffffffffffffffffff\n      and\n      eq\n        /* \"contracts/9_Modificadores.sol\":254:308  require(msg.sender == owner, \"No eres el propietario\") */\n      tag_19\n      jumpi\n      mload(0x40)\n      0x08c379a000000000000000000000000000000000000000000000000000000000\n      dup2\n      mstore\n      0x04\n      add\n      tag_20\n      swap1\n      tag_21\n      jump\t// in\n    tag_20:\n      mload(0x40)\n      dup1\n      swap2\n      sub\n      swap1\n      revert\n    tag_19:\n        /* \"contracts/9_Modificadores.sol\":383:384  0 */\n      0x00\n        /* \"contracts/9_Modificadores.sol\":374:380  fondos */\n      sload(0x00)\n        /* \"contracts/9_Modificadores.sol\":374:384  fondos > 0 */\n      gt\n        /* \"contracts/9_Modificadores.sol\":366:402  require(fondos > 0, \"Fondo en cero\") */\n      tag_23\n      jumpi\n      mload(0x40)\n      0x08c379a000000000000000000000000000000000000000000000000000000000\n      dup2\n      mstore\n      0x04\n      add\n      tag_24\n      swap1\n      tag_25\n      jump\t// in\n    tag_24:\n      mload(0x40)\n      dup1\n      swap2\n      sub\n      swap1\n      revert\n    tag_23:\n        /* \"contracts/9_Modificadores.sol\":705:710  monto */\n      dup1\n        /* \"contracts/9_Modificadores.sol\":695:701  fondos */\n      sload(0x00)\n        /* \"contracts/9_Modificadores.sol\":695:710  fondos >= monto */\n      lt\n      iszero\n        /* \"contracts/9_Modificadores.sol\":687:733  require(fondos >= monto, \"Saldo insuficiente\") */\n      tag_27\n      jumpi\n      mload(0x40)\n      0x08c379a000000000000000000000000000000000000000000000000000000000\n      dup2\n      mstore\n      0x04\n      add\n      tag_28\n      swap1\n      tag_29\n      jump\t// in\n    tag_28:\n      mload(0x40)\n      dup1\n      swap2\n      sub\n      swap1\n      revert\n    tag_27:\n        /* \"contracts/9_Modificadores.sol\":762:767  monto */\n      dup1\n        /* \"contracts/9_Modificadores.sol\":753:759  fondos */\n      sload(0x00)\n        /* \"contracts/9_Modificadores.sol\":753:767  fondos - monto */\n      tag_30\n      swap2\n      swap1\n      tag_31\n      jump\t// in\n    tag_30:\n        /* \"contracts/9_Modificadores.sol\":744:750  fondos */\n      0x00\n        /* \"contracts/9_Modificadores.sol\":744:767  fondos = fondos - monto */\n      dup2\n      swap1\n      sstore\n      pop\n        /* \"contracts/9_Modificadores.sol\":548:796  function retirarFondos(uint256 monto) public isOwner NotCero {... */\n      pop\n      jump\t// out\n        /* \"contracts/9_Modificadores.sol\":804:947  function limpiarFondo() public isOwner NotCero {... */\n    tag_14:\n        /* \"contracts/9_Modificadores.sol\":276:281  owner */\n      0x01\n      0x00\n      swap1\n      sload\n      swap1\n      0x0100\n      exp\n      swap1\n      div\n      0xffffffffffffffffffffffffffffffffffffffff\n      and\n        /* \"contracts/9_Modificadores.sol\":262:281  msg.sender == owner */\n      0xffffffffffffffffffffffffffffffffffffffff\n      and\n        /* \"contracts/9_Modificadores.sol\":262:272  msg.sender */\n      caller\n        /* \"contracts/9_Modificadores.sol\":262:281  msg.sender == owner */\n      0xffffffffffffffffffffffffffffffffffffffff\n      and\n      eq\n        /* \"contracts/9_Modificadores.sol\":254:308  require(msg.sender == owner, \"No eres el propietario\") */\n      tag_33\n      jumpi\n      mload(0x40)\n      0x08c379a000000000000000000000000000000000000000000000000000000000\n      dup2\n      mstore\n      0x04\n      add\n      tag_34\n      swap1\n      tag_21\n      jump\t// in\n    tag_34:\n      mload(0x40)\n      dup1\n      swap2\n      sub\n      swap1\n      revert\n    tag_33:\n        /* \"contracts/9_Modificadores.sol\":383:384  0 */\n      0x00\n        /* \"contracts/9_Modificadores.sol\":374:380  fondos */\n      sload(0x00)\n        /* \"contracts/9_Modificadores.sol\":374:384  fondos > 0 */\n      gt\n        /* \"contracts/9_Modificadores.sol\":366:402  require(fondos > 0, \"Fondo en cero\") */\n      tag_36\n      jumpi\n      mload(0x40)\n      0x08c379a000000000000000000000000000000000000000000000000000000000\n      dup2\n      mstore\n      0x04\n      add\n      tag_37\n      swap1\n      tag_25\n      jump\t// in\n    tag_37:\n      mload(0x40)\n      dup1\n      swap2\n      sub\n      swap1\n      revert\n    tag_36:\n        /* \"contracts/9_Modificadores.sol\":938:939  0 */\n      0x00\n        /* \"contracts/9_Modificadores.sol\":929:935  fondos */\n      0x00\n        /* \"contracts/9_Modificadores.sol\":929:939  fondos = 0 */\n      dup2\n      swap1\n      sstore\n      pop\n        /* \"contracts/9_Modificadores.sol\":804:947  function limpiarFondo() public isOwner NotCero {... */\n      jump\t// out\n        /* \"#utility.yul\":88:205   */\n    tag_40:\n        /* \"#utility.yul\":197:198   */\n      0x00\n        /* \"#utility.yul\":194:195   */\n      0x00\n        /* \"#utility.yul\":187:199   */\n      revert\n        /* \"#utility.yul\":334:411   */\n    tag_42:\n        /* \"#utility.yul\":371:378   */\n      0x00\n        /* \"#utility.yul\":400:405   */\n      dup2\n        /* \"#utility.yul\":389:405   */\n      swap1\n      pop\n        /* \"#utility.yul\":334:411   */\n      swap2\n      swap1\n      pop\n      jump\t// out\n        /* \"#utility.yul\":417:539   */\n    tag_43:\n        /* \"#utility.yul\":490:514   */\n      tag_59\n        /* \"#utility.yul\":508:513   */\n      dup2\n        /* \"#utility.yul\":490:514   */\n      tag_42\n      jump\t// in\n    tag_59:\n        /* \"#utility.yul\":483:488   */\n      dup2\n        /* \"#utility.yul\":480:515   */\n      eq\n        /* \"#utility.yul\":470:533   */\n      tag_60\n      jumpi\n        /* \"#utility.yul\":529:530   */\n      0x00\n        /* \"#utility.yul\":526:527   */\n      0x00\n        /* \"#utility.yul\":519:531   */\n      revert\n        /* \"#utility.yul\":470:533   */\n    tag_60:\n        /* \"#utility.yul\":417:539   */\n      pop\n      jump\t// out\n        /* \"#utility.yul\":545:684   */\n    tag_44:\n        /* \"#utility.yul\":591:596   */\n      0x00\n        /* \"#utility.yul\":629:635   */\n      dup2\n        /* \"#utility.yul\":616:636   */\n      calldataload\n        /* \"#utility.yul\":607:636   */\n      swap1\n      pop\n        /* \"#utility.yul\":645:678   */\n      tag_62\n        /* \"#utility.yul\":672:677   */\n      dup2\n        /* \"#utility.yul\":645:678   */\n      tag_43\n      jump\t// in\n    tag_62:\n        /* \"#utility.yul\":545:684   */\n      swap3\n      swap2\n      pop\n      pop\n      jump\t// out\n        /* \"#utility.yul\":690:1019   */\n    tag_8:\n        /* \"#utility.yul\":749:755   */\n      0x00\n        /* \"#utility.yul\":798:800   */\n      0x20\n        /* \"#utility.yul\":786:795   */\n      dup3\n        /* \"#utility.yul\":777:784   */\n      dup5\n        /* \"#utility.yul\":773:796   */\n      sub\n        /* \"#utility.yul\":769:801   */\n      slt\n        /* \"#utility.yul\":766:885   */\n      iszero\n      tag_64\n      jumpi\n        /* \"#utility.yul\":804:883   */\n      tag_65\n      tag_40\n      jump\t// in\n    tag_65:\n        /* \"#utility.yul\":766:885   */\n    tag_64:\n        /* \"#utility.yul\":924:925   */\n      0x00\n        /* \"#utility.yul\":949:1002   */\n      tag_66\n        /* \"#utility.yul\":994:1001   */\n      dup5\n        /* \"#utility.yul\":985:991   */\n      dup3\n        /* \"#utility.yul\":974:983   */\n      dup6\n        /* \"#utility.yul\":970:992   */\n      add\n        /* \"#utility.yul\":949:1002   */\n      tag_44\n      jump\t// in\n    tag_66:\n        /* \"#utility.yul\":939:1002   */\n      swap2\n      pop\n        /* \"#utility.yul\":895:1012   */\n      pop\n        /* \"#utility.yul\":690:1019   */\n      swap3\n      swap2\n      pop\n      pop\n      jump\t// out\n        /* \"#utility.yul\":1025:1205   */\n    tag_45:\n        /* \"#utility.yul\":1073:1150   */\n      0x4e487b7100000000000000000000000000000000000000000000000000000000\n        /* \"#utility.yul\":1070:1071   */\n      0x00\n        /* \"#utility.yul\":1063:1151   */\n      mstore\n        /* \"#utility.yul\":1170:1174   */\n      0x11\n        /* \"#utility.yul\":1167:1168   */\n      0x04\n        /* \"#utility.yul\":1160:1175   */\n      mstore\n        /* \"#utility.yul\":1194:1198   */\n      0x24\n        /* \"#utility.yul\":1191:1192   */\n      0x00\n        /* \"#utility.yul\":1184:1199   */\n      revert\n        /* \"#utility.yul\":1211:1402   */\n    tag_17:\n        /* \"#utility.yul\":1251:1254   */\n      0x00\n        /* \"#utility.yul\":1270:1290   */\n      tag_69\n        /* \"#utility.yul\":1288:1289   */\n      dup3\n        /* \"#utility.yul\":1270:1290   */\n      tag_42\n      jump\t// in\n    tag_69:\n        /* \"#utility.yul\":1265:1290   */\n      swap2\n      pop\n        /* \"#utility.yul\":1304:1324   */\n      tag_70\n        /* \"#utility.yul\":1322:1323   */\n      dup4\n        /* \"#utility.yul\":1304:1324   */\n      tag_42\n      jump\t// in\n    tag_70:\n        /* \"#utility.yul\":1299:1324   */\n      swap3\n      pop\n        /* \"#utility.yul\":1347:1348   */\n      dup3\n        /* \"#utility.yul\":1344:1345   */\n      dup3\n        /* \"#utility.yul\":1340:1349   */\n      add\n        /* \"#utility.yul\":1333:1349   */\n      swap1\n      pop\n        /* \"#utility.yul\":1368:1371   */\n      dup1\n        /* \"#utility.yul\":1365:1366   */\n      dup3\n        /* \"#utility.yul\":1362:1372   */\n      gt\n        /* \"#utility.yul\":1359:1395   */\n      iszero\n      tag_71\n      jumpi\n        /* \"#utility.yul\":1375:1393   */\n      tag_72\n      tag_45\n      jump\t// in\n    tag_72:\n        /* \"#utility.yul\":1359:1395   */\n    tag_71:\n        /* \"#utility.yul\":1211:1402   */\n      swap3\n      swap2\n      pop\n      pop\n      jump\t// out\n        /* \"#utility.yul\":1408:1577   */\n    tag_46:\n        /* \"#utility.yul\":1492:1503   */\n      0x00\n        /* \"#utility.yul\":1526:1532   */\n      dup3\n        /* \"#utility.yul\":1521:1524   */\n      dup3\n        /* \"#utility.yul\":1514:1533   */\n      mstore\n        /* \"#utility.yul\":1566:1570   */\n      0x20\n        /* \"#utility.yul\":1561:1564   */\n      dup3\n        /* \"#utility.yul\":1557:1571   */\n      add\n        /* \"#utility.yul\":1542:1571   */\n      swap1\n      pop\n        /* \"#utility.yul\":1408:1577   */\n      swap3\n      swap2\n      pop\n      pop\n      jump\t// out\n        /* \"#utility.yul\":1583:1755   */\n    tag_47:\n        /* \"#utility.yul\":1723:1747   */\n      0x4e6f206572657320656c2070726f706965746172696f00000000000000000000\n        /* \"#utility.yul\":1719:1720   */\n      0x00\n        /* \"#utility.yul\":1711:1717   */\n      dup3\n        /* \"#utility.yul\":1707:1721   */\n      add\n        /* \"#utility.yul\":1700:1748   */\n      mstore\n        /* \"#utility.yul\":1583:1755   */\n      pop\n      jump\t// out\n        /* \"#utility.yul\":1761:2127   */\n    tag_48:\n        /* \"#utility.yul\":1903:1906   */\n      0x00\n        /* \"#utility.yul\":1924:1991   */\n      tag_76\n        /* \"#utility.yul\":1988:1990   */\n      0x16\n        /* \"#utility.yul\":1983:1986   */\n      dup4\n        /* \"#utility.yul\":1924:1991   */\n      tag_46\n      jump\t// in\n    tag_76:\n        /* \"#utility.yul\":1917:1991   */\n      swap2\n      pop\n        /* \"#utility.yul\":2000:2093   */\n      tag_77\n        /* \"#utility.yul\":2089:2092   */\n      dup3\n        /* \"#utility.yul\":2000:2093   */\n      tag_47\n      jump\t// in\n    tag_77:\n        /* \"#utility.yul\":2118:2120   */\n      0x20\n        /* \"#utility.yul\":2113:2116   */\n      dup3\n        /* \"#utility.yul\":2109:2121   */\n      add\n        /* \"#utility.yul\":2102:2121   */\n      swap1\n      pop\n        /* \"#utility.yul\":1761:2127   */\n      swap2\n      swap1\n      pop\n      jump\t// out\n        /* \"#utility.yul\":2133:2552   */\n    tag_21:\n        /* \"#utility.yul\":2299:2303   */\n      0x00\n        /* \"#utility.yul\":2337:2339   */\n      0x20\n        /* \"#utility.yul\":2326:2335   */\n      dup3\n        /* \"#utility.yul\":2322:2340   */\n      add\n        /* \"#utility.yul\":2314:2340   */\n      swap1\n      pop\n        /* \"#utility.yul\":2386:2395   */\n      dup2\n        /* \"#utility.yul\":2380:2384   */\n      dup2\n        /* \"#utility.yul\":2376:2396   */\n      sub\n        /* \"#utility.yul\":2372:2373   */\n      0x00\n        /* \"#utility.yul\":2361:2370   */\n      dup4\n        /* \"#utility.yul\":2357:2374   */\n      add\n        /* \"#utility.yul\":2350:2397   */\n      mstore\n        /* \"#utility.yul\":2414:2545   */\n      tag_79\n        /* \"#utility.yul\":2540:2544   */\n      dup2\n        /* \"#utility.yul\":2414:2545   */\n      tag_48\n      jump\t// in\n    tag_79:\n        /* \"#utility.yul\":2406:2545   */\n      swap1\n      pop\n        /* \"#utility.yul\":2133:2552   */\n      swap2\n      swap1\n      pop\n      jump\t// out\n        /* \"#utility.yul\":2558:2721   */\n    tag_49:\n        /* \"#utility.yul\":2698:2713   */\n      0x466f6e646f20656e206365726f00000000000000000000000000000000000000\n        /* \"#utility.yul\":2694:2695   */\n      0x00\n        /* \"#utility.yul\":2686:2692   */\n      dup3\n        /* \"#utility.yul\":2682:2696   */\n      add\n        /* \"#utility.yul\":2675:2714   */\n      mstore\n        /* \"#utility.yul\":2558:2721   */\n      pop\n      jump\t// out\n        /* \"#utility.yul\":2727:3093   */\n    tag_50:\n        /* \"#utility.yul\":2869:2872   */\n      0x00\n        /* \"#utility.yul\":2890:2957   */\n      tag_82\n        /* \"#utility.yul\":2954:2956   */\n      0x0d\n        /* \"#utility.yul\":2949:2952   */\n      dup4\n        /* \"#utility.yul\":2890:2957   */\n      tag_46\n      jump\t// in\n    tag_82:\n        /* \"#utility.yul\":2883:2957   */\n      swap2\n      pop\n        /* \"#utility.yul\":2966:3059   */\n      tag_83\n        /* \"#utility.yul\":3055:3058   */\n      dup3\n        /* \"#utility.yul\":2966:3059   */\n      tag_49\n      jump\t// in\n    tag_83:\n        /* \"#utility.yul\":3084:3086   */\n      0x20\n        /* \"#utility.yul\":3079:3082   */\n      dup3\n        /* \"#utility.yul\":3075:3087   */\n      add\n        /* \"#utility.yul\":3068:3087   */\n      swap1\n      pop\n        /* \"#utility.yul\":2727:3093   */\n      swap2\n      swap1\n      pop\n      jump\t// out\n        /* \"#utility.yul\":3099:3518   */\n    tag_25:\n        /* \"#utility.yul\":3265:3269   */\n      0x00\n        /* \"#utility.yul\":3303:3305   */\n      0x20\n        /* \"#utility.yul\":3292:3301   */\n      dup3\n        /* \"#utility.yul\":3288:3306   */\n      add\n        /* \"#utility.yul\":3280:3306   */\n      swap1\n      pop\n        /* \"#utility.yul\":3352:3361   */\n      dup2\n        /* \"#utility.yul\":3346:3350   */\n      dup2\n        /* \"#utility.yul\":3342:3362   */\n      sub\n        /* \"#utility.yul\":3338:3339   */\n      0x00\n        /* \"#utility.yul\":3327:3336   */\n      dup4\n        /* \"#utility.yul\":3323:3340   */\n      add\n        /* \"#utility.yul\":3316:3363   */\n      mstore\n        /* \"#utility.yul\":3380:3511   */\n      tag_85\n        /* \"#utility.yul\":3506:3510   */\n      dup2\n        /* \"#utility.yul\":3380:3511   */\n      tag_50\n      jump\t// in\n    tag_85:\n        /* \"#utility.yul\":3372:3511   */\n      swap1\n      pop\n        /* \"#utility.yul\":3099:3518   */\n      swap2\n      swap1\n      pop\n      jump\t// out\n        /* \"#utility.yul\":3524:3692   */\n    tag_51:\n        /* \"#utility.yul\":3664:3684   */\n      0x53616c646f20696e737566696369656e74650000000000000000000000000000\n        /* \"#utility.yul\":3660:3661   */\n      0x00\n        /* \"#utility.yul\":3652:3658   */\n      dup3\n        /* \"#utility.yul\":3648:3662   */\n      add\n        /* \"#utility.yul\":3641:3685   */\n      mstore\n        /* \"#utility.yul\":3524:3692   */\n      pop\n      jump\t// out\n        /* \"#utility.yul\":3698:4064   */\n    tag_52:\n        /* \"#utility.yul\":3840:3843   */\n      0x00\n        /* \"#utility.yul\":3861:3928   */\n      tag_88\n        /* \"#utility.yul\":3925:3927   */\n      0x12\n        /* \"#utility.yul\":3920:3923   */\n      dup4\n        /* \"#utility.yul\":3861:3928   */\n      tag_46\n      jump\t// in\n    tag_88:\n        /* \"#utility.yul\":3854:3928   */\n      swap2\n      pop\n        /* \"#utility.yul\":3937:4030   */\n      tag_89\n        /* \"#utility.yul\":4026:4029   */\n      dup3\n        /* \"#utility.yul\":3937:4030   */\n      tag_51\n      jump\t// in\n    tag_89:\n        /* \"#utility.yul\":4055:4057   */\n      0x20\n        /* \"#utility.yul\":4050:4053   */\n      dup3\n        /* \"#utility.yul\":4046:4058   */\n      add\n        /* \"#utility.yul\":4039:4058   */\n      swap1\n      pop\n        /* \"#utility.yul\":3698:4064   */\n      swap2\n      swap1\n      pop\n      jump\t// out\n        /* \"#utility.yul\":4070:4489   */\n    tag_29:\n        /* \"#utility.yul\":4236:4240   */\n      0x00\n        /* \"#utility.yul\":4274:4276   */\n      0x20\n        /* \"#utility.yul\":4263:4272   */\n      dup3\n        /* \"#utility.yul\":4259:4277   */\n      add\n        /* \"#utility.yul\":4251:4277   */\n      swap1\n      pop\n        /* \"#utility.yul\":4323:4332   */\n      dup2\n        /* \"#utility.yul\":4317:4321   */\n      dup2\n        /* \"#utility.yul\":4313:4333   */\n      sub\n        /* \"#utility.yul\":4309:4310   */\n      0x00\n        /* \"#utility.yul\":4298:4307   */\n      dup4\n        /* \"#utility.yul\":4294:4311   */\n      add\n        /* \"#utility.yul\":4287:4334   */\n      mstore\n        /* \"#utility.yul\":4351:4482   */\n      tag_91\n        /* \"#utility.yul\":4477:4481   */\n      dup2\n        /* \"#utility.yul\":4351:4482   */\n      tag_52\n      jump\t// in\n    tag_91:\n        /* \"#utility.yul\":4343:4482   */\n      swap1\n      pop\n        /* \"#utility.yul\":4070:4489   */\n      swap2\n      swap1\n      pop\n      jump\t// out\n        /* \"#utility.yul\":4495:4689   */\n    tag_31:\n        /* \"#utility.yul\":4535:4539   */\n      0x00\n        /* \"#utility.yul\":4555:4575   */\n      tag_93\n        /* \"#utility.yul\":4573:4574   */\n      dup3\n        /* \"#utility.yul\":4555:4575   */\n      tag_42\n      jump\t// in\n    tag_93:\n        /* \"#utility.yul\":4550:4575   */\n      swap2\n      pop\n        /* \"#utility.yul\":4589:4609   */\n      tag_94\n        /* \"#utility.yul\":4607:4608   */\n      dup4\n        /* \"#utility.yul\":4589:4609   */\n      tag_42\n      jump\t// in\n    tag_94:\n        /* \"#utility.yul\":4584:4609   */\n      swap3\n      pop\n        /* \"#utility.yul\":4633:4634   */\n      dup3\n        /* \"#utility.yul\":4630:4631   */\n      dup3\n        /* \"#utility.yul\":4626:4635   */\n      sub\n        /* \"#utility.yul\":4618:4635   */\n      swap1\n      pop\n        /* \"#utility.yul\":4657:4658   */\n      dup2\n        /* \"#utility.yul\":4651:4655   */\n      dup2\n        /* \"#utility.yul\":4648:4659   */\n      gt\n        /* \"#utility.yul\":4645:4682   */\n      iszero\n      tag_95\n      jumpi\n        /* \"#utility.yul\":4662:4680   */\n      tag_96\n      tag_45\n      jump\t// in\n    tag_96:\n        /* \"#utility.yul\":4645:4682   */\n    tag_95:\n        /* \"#utility.yul\":4495:4689   */\n      swap3\n      swap2\n      pop\n      pop\n      jump\t// out\n\n    auxdata: 0xa26469706673582212209f00a4a1ecc5950a129f6536c1e9b999c65cbdf160825905c0d19eb65b1a6efb64736f6c63430008220033\n}\n",
				"bytecode": {
					"linkReferences": {},
					"object": "60806040525f5f553480156011575f5ffd5b503360015f6101000a81548173ffffffffffffffffffffffffffffffffffffffff021916908373ffffffffffffffffffffffffffffffffffffffff1602179055506105128061005f5f395ff3fe608060405234801561000f575f5ffd5b506004361061003f575f3560e01c8063453b773714610043578063a32aa7171461005f578063d5c2e7131461007b575b5f5ffd5b61005d600480360381019061005891906102d6565b610085565b005b610079600480360381019061007491906102d6565b61009a565b005b6100836101c5565b005b805f54610092919061032e565b5f8190555050565b60015f9054906101000a900473ffffffffffffffffffffffffffffffffffffffff1673ffffffffffffffffffffffffffffffffffffffff163373ffffffffffffffffffffffffffffffffffffffff1614610129576040517f08c379a0000000000000000000000000000000000000000000000000000000008152600401610120906103bb565b60405180910390fd5b5f5f541161016c576040517f08c379a000000000000000000000000000000000000000000000000000000000815260040161016390610423565b60405180910390fd5b805f5410156101b0576040517f08c379a00000000000000000000000000000000000000000000000000000000081526004016101a79061048b565b60405180910390fd5b805f546101bd91906104a9565b5f8190555050565b60015f9054906101000a900473ffffffffffffffffffffffffffffffffffffffff1673ffffffffffffffffffffffffffffffffffffffff163373ffffffffffffffffffffffffffffffffffffffff1614610254576040517f08c379a000000000000000000000000000000000000000000000000000000000815260040161024b906103bb565b60405180910390fd5b5f5f5411610297576040517f08c379a000000000000000000000000000000000000000000000000000000000815260040161028e90610423565b60405180910390fd5b5f5f81905550565b5f5ffd5b5f819050919050565b6102b5816102a3565b81146102bf575f5ffd5b50565b5f813590506102d0816102ac565b92915050565b5f602082840312156102eb576102ea61029f565b5b5f6102f8848285016102c2565b91505092915050565b7f4e487b71000000000000000000000000000000000000000000000000000000005f52601160045260245ffd5b5f610338826102a3565b9150610343836102a3565b925082820190508082111561035b5761035a610301565b5b92915050565b5f82825260208201905092915050565b7f4e6f206572657320656c2070726f706965746172696f000000000000000000005f82015250565b5f6103a5601683610361565b91506103b082610371565b602082019050919050565b5f6020820190508181035f8301526103d281610399565b9050919050565b7f466f6e646f20656e206365726f000000000000000000000000000000000000005f82015250565b5f61040d600d83610361565b9150610418826103d9565b602082019050919050565b5f6020820190508181035f83015261043a81610401565b9050919050565b7f53616c646f20696e737566696369656e746500000000000000000000000000005f82015250565b5f610475601283610361565b915061048082610441565b602082019050919050565b5f6020820190508181035f8301526104a281610469565b9050919050565b5f6104b3826102a3565b91506104be836102a3565b92508282039050818111156104d6576104d5610301565b5b9291505056fea26469706673582212209f00a4a1ecc5950a129f6536c1e9b999c65cbdf160825905c0d19eb65b1a6efb64736f6c63430008220033",
					"opcodes": "PUSH1 0x80 PUSH1 0x40 MSTORE PUSH0 PUSH0 SSTORE CALLVALUE DUP1 ISZERO PUSH1 0x11 JUMPI PUSH0 PUSH0 REVERT JUMPDEST POP CALLER PUSH1 0x1 PUSH0 PUSH2 0x100 EXP DUP2 SLOAD DUP2 PUSH20 0xFFFFFFFFFFFFFFFFFFFFFFFFFFFFFFFFFFFFFFFF MUL NOT AND SWAP1 DUP4 PUSH20 0xFFFFFFFFFFFFFFFFFFFFFFFFFFFFFFFFFFFFFFFF AND MUL OR SWAP1 SSTORE POP PUSH2 0x512 DUP1 PUSH2 0x5F PUSH0 CODECOPY PUSH0 RETURN INVALID PUSH1 0x80 PUSH1 0x40 MSTORE CALLVALUE DUP1 ISZERO PUSH2 0xF JUMPI PUSH0 PUSH0 REVERT JUMPDEST POP PUSH1 0x4 CALLDATASIZE LT PUSH2 0x3F JUMPI PUSH0 CALLDATALOAD PUSH1 0xE0 SHR DUP1 PUSH4 0x453B7737 EQ PUSH2 0x43 JUMPI DUP1 PUSH4 0xA32AA717 EQ PUSH2 0x5F JUMPI DUP1 PUSH4 0xD5C2E713 EQ PUSH2 0x7B JUMPI JUMPDEST PUSH0 PUSH0 REVERT JUMPDEST PUSH2 0x5D PUSH1 0x4 DUP1 CALLDATASIZE SUB DUP2 ADD SWAP1 PUSH2 0x58 SWAP2 SWAP1 PUSH2 0x2D6 JUMP JUMPDEST PUSH2 0x85 JUMP JUMPDEST STOP JUMPDEST PUSH2 0x79 PUSH1 0x4 DUP1 CALLDATASIZE SUB DUP2 ADD SWAP1 PUSH2 0x74 SWAP2 SWAP1 PUSH2 0x2D6 JUMP JUMPDEST PUSH2 0x9A JUMP JUMPDEST STOP JUMPDEST PUSH2 0x83 PUSH2 0x1C5 JUMP JUMPDEST STOP JUMPDEST DUP1 PUSH0 SLOAD PUSH2 0x92 SWAP2 SWAP1 PUSH2 0x32E JUMP JUMPDEST PUSH0 DUP2 SWAP1 SSTORE POP POP JUMP JUMPDEST PUSH1 0x1 PUSH0 SWAP1 SLOAD SWAP1 PUSH2 0x100 EXP SWAP1 DIV PUSH20 0xFFFFFFFFFFFFFFFFFFFFFFFFFFFFFFFFFFFFFFFF AND PUSH20 0xFFFFFFFFFFFFFFFFFFFFFFFFFFFFFFFFFFFFFFFF AND CALLER PUSH20 0xFFFFFFFFFFFFFFFFFFFFFFFFFFFFFFFFFFFFFFFF AND EQ PUSH2 0x129 JUMPI PUSH1 0x40 MLOAD PUSH32 0x8C379A000000000000000000000000000000000000000000000000000000000 DUP2 MSTORE PUSH1 0x4 ADD PUSH2 0x120 SWAP1 PUSH2 0x3BB JUMP JUMPDEST PUSH1 0x40 MLOAD DUP1 SWAP2 SUB SWAP1 REVERT JUMPDEST PUSH0 PUSH0 SLOAD GT PUSH2 0x16C JUMPI PUSH1 0x40 MLOAD PUSH32 0x8C379A000000000000000000000000000000000000000000000000000000000 DUP2 MSTORE PUSH1 0x4 ADD PUSH2 0x163 SWAP1 PUSH2 0x423 JUMP JUMPDEST PUSH1 0x40 MLOAD DUP1 SWAP2 SUB SWAP1 REVERT JUMPDEST DUP1 PUSH0 SLOAD LT ISZERO PUSH2 0x1B0 JUMPI PUSH1 0x40 MLOAD PUSH32 0x8C379A000000000000000000000000000000000000000000000000000000000 DUP2 MSTORE PUSH1 0x4 ADD PUSH2 0x1A7 SWAP1 PUSH2 0x48B JUMP JUMPDEST PUSH1 0x40 MLOAD DUP1 SWAP2 SUB SWAP1 REVERT JUMPDEST DUP1 PUSH0 SLOAD PUSH2 0x1BD SWAP2 SWAP1 PUSH2 0x4A9 JUMP JUMPDEST PUSH0 DUP2 SWAP1 SSTORE POP POP JUMP JUMPDEST PUSH1 0x1 PUSH0 SWAP1 SLOAD SWAP1 PUSH2 0x100 EXP SWAP1 DIV PUSH20 0xFFFFFFFFFFFFFFFFFFFFFFFFFFFFFFFFFFFFFFFF AND PUSH20 0xFFFFFFFFFFFFFFFFFFFFFFFFFFFFFFFFFFFFFFFF AND CALLER PUSH20 0xFFFFFFFFFFFFFFFFFFFFFFFFFFFFFFFFFFFFFFFF AND EQ PUSH2 0x254 JUMPI PUSH1 0x40 MLOAD PUSH32 0x8C379A000000000000000000000000000000000000000000000000000000000 DUP2 MSTORE PUSH1 0x4 ADD PUSH2 0x24B SWAP1 PUSH2 0x3BB JUMP JUMPDEST PUSH1 0x40 MLOAD DUP1 SWAP2 SUB SWAP1 REVERT JUMPDEST PUSH0 PUSH0 SLOAD GT PUSH2 0x297 JUMPI PUSH1 0x40 MLOAD PUSH32 0x8C379A000000000000000000000000000000000000000000000000000000000 DUP2 MSTORE PUSH1 0x4 ADD PUSH2 0x28E SWAP1 PUSH2 0x423 JUMP JUMPDEST PUSH1 0x40 MLOAD DUP1 SWAP2 SUB SWAP1 REVERT JUMPDEST PUSH0 PUSH0 DUP2 SWAP1 SSTORE POP JUMP JUMPDEST PUSH0 PUSH0 REVERT JUMPDEST PUSH0 DUP2 SWAP1 POP SWAP2 SWAP1 POP JUMP JUMPDEST PUSH2 0x2B5 DUP2 PUSH2 0x2A3 JUMP JUMPDEST DUP2 EQ PUSH2 0x2BF JUMPI PUSH0 PUSH0 REVERT JUMPDEST POP JUMP JUMPDEST PUSH0 DUP2 CALLDATALOAD SWAP1 POP PUSH2 0x2D0 DUP2 PUSH2 0x2AC JUMP JUMPDEST SWAP3 SWAP2 POP POP JUMP JUMPDEST PUSH0 PUSH1 0x20 DUP3 DUP5 SUB SLT ISZERO PUSH2 0x2EB JUMPI PUSH2 0x2EA PUSH2 0x29F JUMP JUMPDEST JUMPDEST PUSH0 PUSH2 0x2F8 DUP5 DUP3 DUP6 ADD PUSH2 0x2C2 JUMP JUMPDEST SWAP2 POP POP SWAP3 SWAP2 POP POP JUMP JUMPDEST PUSH32 0x4E487B7100000000000000000000000000000000000000000000000000000000 PUSH0 MSTORE PUSH1 0x11 PUSH1 0x4 MSTORE PUSH1 0x24 PUSH0 REVERT JUMPDEST PUSH0 PUSH2 0x338 DUP3 PUSH2 0x2A3 JUMP JUMPDEST SWAP2 POP PUSH2 0x343 DUP4 PUSH2 0x2A3 JUMP JUMPDEST SWAP3 POP DUP3 DUP3 ADD SWAP1 POP DUP1 DUP3 GT ISZERO PUSH2 0x35B JUMPI PUSH2 0x35A PUSH2 0x301 JUMP JUMPDEST JUMPDEST SWAP3 SWAP2 POP POP JUMP JUMPDEST PUSH0 DUP3 DUP3 MSTORE PUSH1 0x20 DUP3 ADD SWAP1 POP SWAP3 SWAP2 POP POP JUMP JUMPDEST PUSH32 0x4E6F206572657320656C2070726F706965746172696F00000000000000000000 PUSH0 DUP3 ADD MSTORE POP JUMP JUMPDEST PUSH0 PUSH2 0x3A5 PUSH1 0x16 DUP4 PUSH2 0x361 JUMP JUMPDEST SWAP2 POP PUSH2 0x3B0 DUP3 PUSH2 0x371 JUMP JUMPDEST PUSH1 0x20 DUP3 ADD SWAP1 POP SWAP2 SWAP1 POP JUMP JUMPDEST PUSH0 PUSH1 0x20 DUP3 ADD SWAP1 POP DUP2 DUP2 SUB PUSH0 DUP4 ADD MSTORE PUSH2 0x3D2 DUP2 PUSH2 0x399 JUMP JUMPDEST SWAP1 POP SWAP2 SWAP1 POP JUMP JUMPDEST PUSH32 0x466F6E646F20656E206365726F00000000000000000000000000000000000000 PUSH0 DUP3 ADD MSTORE POP JUMP JUMPDEST PUSH0 PUSH2 0x40D PUSH1 0xD DUP4 PUSH2 0x361 JUMP JUMPDEST SWAP2 POP PUSH2 0x418 DUP3 PUSH2 0x3D9 JUMP JUMPDEST PUSH1 0x20 DUP3 ADD SWAP1 POP SWAP2 SWAP1 POP JUMP JUMPDEST PUSH0 PUSH1 0x20 DUP3 ADD SWAP1 POP DUP2 DUP2 SUB PUSH0 DUP4 ADD MSTORE PUSH2 0x43A DUP2 PUSH2 0x401 JUMP JUMPDEST SWAP1 POP SWAP2 SWAP1 POP JUMP JUMPDEST PUSH32 0x53616C646F20696E737566696369656E74650000000000000000000000000000 PUSH0 DUP3 ADD MSTORE POP JUMP JUMPDEST PUSH0 PUSH2 0x475 PUSH1 0x12 DUP4 PUSH2 0x361 JUMP JUMPDEST SWAP2 POP PUSH2 0x480 DUP3 PUSH2 0x441 JUMP JUMPDEST PUSH1 0x20 DUP3 ADD SWAP1 POP SWAP2 SWAP1 POP JUMP JUMPDEST PUSH0 PUSH1 0x20 DUP3 ADD SWAP1 POP DUP2 DUP2 SUB PUSH0 DUP4 ADD MSTORE PUSH2 0x4A2 DUP2 PUSH2 0x469 JUMP JUMPDEST SWAP1 POP SWAP2 SWAP1 POP JUMP JUMPDEST PUSH0 PUSH2 0x4B3 DUP3 PUSH2 0x2A3 JUMP JUMPDEST SWAP2 POP PUSH2 0x4BE DUP4 PUSH2 0x2A3 JUMP JUMPDEST SWAP3 POP DUP3 DUP3 SUB SWAP1 POP DUP2 DUP2 GT ISZERO PUSH2 0x4D6 JUMPI PUSH2 0x4D5 PUSH2 0x301 JUMP JUMPDEST JUMPDEST SWAP3 SWAP2 POP POP JUMP INVALID LOG2 PUSH5 0x6970667358 0x22 SLT KECCAK256 SWAP16 STOP LOG4 LOG1 EOFCREATE 0xC5 SWAP6 EXP SLT SWAP16 PUSH6 0x36C1E9B999C6 TLOAD 0xBD CALL PUSH1 0x82 MSIZE SDIV 0xC0 DATALOADN 0x9EB6 JUMPDEST BYTE PUSH15 0xFB64736F6C63430008220033000000 "
				},
				"gasEstimates": {
					"creation": {
						"codeDepositCost": "259600",
						"executionCost": "29567",
						"totalCost": "289167"
					},
					"external": {
						"depositarFondos(uint256)": "infinite",
						"limpiarFondo()": "9467",
						"retirarFondos(uint256)": "infinite"
					}
				},
				"methodIdentifiers": {
					"depositarFondos(uint256)": "453b7737",
					"limpiarFondo()": "d5c2e713",
					"retirarFondos(uint256)": "a32aa717"
				}
			},
			"storageLayout": {
				"storage": [
					{
						"astId": 4,
						"contract": "contracts/9_Modificadores.sol:Modificadores",
						"label": "fondos",
						"offset": 0,
						"slot": "0",
						"type": "t_uint256"
					},
					{
						"astId": 6,
						"contract": "contracts/9_Modificadores.sol:Modificadores",
						"label": "owner",
						"offset": 0,
						"slot": "1",
						"type": "t_address"
					}
				],
				"types": {
					"t_address": {
						"encoding": "inplace",
						"label": "address",
						"numberOfBytes": "20"
					},
					"t_uint256": {
						"encoding": "inplace",
						"label": "uint256",
						"numberOfBytes": "32"
					}
				}
			},
			"userdoc": {
				"kind": "user",
				"methods": {},
				"version": 1
			}
		}
	}
}